:100000000C9486000C94A3000C94A3000C94A30001
:100010000C94A3000C94A3000C94A3000C948806E9
:100020000C94A3000C94A3000C94A3000C94A300C4
:100030000C94A3000C94A3000C94A3000C94A300B4
:100040000C94A3000C94A3000C94A5000C94A300A2
:100050000C94A3000C94A3000C94A3000C94A30094
:100060000C94A3000C94A3000C94A3000C94A30084
:100070000C94CB000C94A3000C94A3000C94A3004C
:100080000C94A3000C94A3000C94A3000C94A30064
:100090000C94A3000C94A3000C94A3000C94A30054
:1000A0000C94A3000C94A3000C94A3000C94A30044
:1000B0000C94A300FC00FF00040109010E011301D0
:1000C00018011D01220127012C01310136013B01DC
:1000D000400145014A014F01540159015E0161018E
:1000E000730177017C01810186018B0190019501EB
:1000F0009A019F01A401A901AE01B301B801BD019C
:10010000C201C701CC01D101D601DA0111241FBE01
:10011000CFEFD8E0DEBFCDBF11E0A0E0B1E0E6EB6D
:10012000F6E102C005900D92AC30B107D9F722E09C
:10013000ACE0B1E001C01D92A43AB207E1F70E9421
:1001400074060C94590B0C9400001F920F920FB67A
:100150000F9211248F939F93EF93FF9380912D0122
:100160009091C600E82FF0E0E452FE4F908385396D
:1001700018F010922D0103C08F5F80932D0181E054
:1001800080934001FF91EF919F918F910F900FBE4F
:100190000F901F9018951F920F920FB60F92112477
:1001A0008F939F93EF93FF9380912C019091CE00BA
:1001B000E82FF0E0EF5BFE4F908391E090934001D9
:1001C000853918F010922C0103C08F5F80932C01A9
:1001D000FF91EF919F918F910F900FBE0F901F9005
:1001E000189590E0FC013197E631F10508F06CC0FC
:1001F000E65AFF4F0C943F0B6093DB010895E2E356
:10020000F1E0608371830895E2E3F1E06283738338
:100210000895E2E3F1E0648375830895E2E3F1E099
:10022000668377830895E2E3F1E06087718708953C
:10023000E2E3F1E0628773870895E2E3F1E0648727
:1002400075870895E6E1F1E0608371830895E6E142
:10025000F1E0628373830895E6E1F1E064837583DE
:100260000895E6E1F1E0668377830895E6E1F1E041
:10027000608771870895E6E1F1E0628773870895EA
:10028000E3E2F1E0608371830895E3E2F1E06283E9
:1002900073830895E3E2F1E0648375830895E3E2F4
:1002A000F1E06683778308956093970270939802D4
:1002B000089560933001709331010895609399021D
:1002C000089560939A02089581E080930C01089547
:1002D00090E0FC013197E631F10508F06FC0E0597C
:1002E000FF4F0C943F0B8091DB0190E008958091CB
:1002F000320190913301089580913401909135013C
:1003000008958091360190913701089580913801C8
:1003100090913901089580913A0190913B0108959F
:1003200080913C0190913D01089580913E01909112
:100330003F010895809116019091170108958091D1
:10034000180190911901089580911A0190911B0153
:10035000089580911C0190911D01089580911E01C6
:1003600090911F010895809120019091210108959D
:10037000809123019091240108958091250190910D
:100380002601089580912701909128010895809178
:10039000290190912A0108958091970290919802E5
:1003A00008958091300190913101089580919902D2
:1003B00090E0089580919A0290E0089581E0809302
:1003C0000C0180E090E00895E2E7F2E08091DB012B
:1003D0008083A2E3B1E08C9111969C911197918357
:1003E000828312968C91129713969C911397938304
:1003F000848314968C91149715969C9115979583E8
:10040000868316968C91169717969C9117979783CB
:10041000808718968C91189719969C9119979187B7
:1004200082871A968C911A971B969C911B9793879B
:1004300084871C968C911C971D969C919587868726
:10044000A6E1B1E08C9111969C9111979787808BD2
:1004500012968C91129713969C911397918B828B85
:1004600014968C91149715969C911597938B848B69
:1004700016968C91169717969C911797958B868B4D
:1004800018968C91189719969C911997978B808F35
:100490001A968C911A971B969C91918F828FA3E24A
:1004A000B1E08C9111969C911197938F848F129645
:1004B0008C91129713969C911397958F868F149613
:1004C0008C91149715969C911597978F80A31696EB
:1004D0008C91169717969C9191A382A39091970265
:1004E0008091980293A384A390913001809131016F
:1004F00095A386A38091990287A380919A0280A7F1
:1005000060E4CF010E94430708950F931F93CF9398
:10051000DF9380911201863009F05CC020912201A6
:1005200030E080912D0190E0821B930B8A569F4F03
:1005300066E970E00E942B0B181619060CF0B5C383
:10054000F901E452FE4F208180912E0190912F01FC
:10055000820F911D90932F0180932E01E2E7F2E02C
:100560009C012F5F3F4F9281930F92838F5F838314
:1005700069E0CF010E94430780912E0190912F01E5
:100580009C01220F331F220F331F820F931F909362
:1005900011018093100180912201853918F0109289
:1005A000220103C08F5F8093220187E080931201B4
:1005B0002091220130E080912D0190E0821B930B6D
:1005C0008A569F4F66E970E00E942B0B1816190699
:1005D000BCF05DC39FEF980F9530C8F420912201C5
:1005E00030E080912D0190E0821B930B8A569F4F43
:1005F00066E970E00E942B0B181619060CF04BC030
:10060000E0911001F0911101309729F43AC387303D
:1006100009F041C024C306E010E0C6E9D0E08091B3
:100620001201833061F4C8018E1B9F0BFC01EE5850
:10063000FD4FD901A452BE4F8C91808306C0F901B1
:10064000E452FE4F80810E94350780912201853956
:1006500018F01092220103C08F5F80932201E09175
:100660001001F09111013197F0931101E093100105
:100670002091220130E080912D0190E0821B930BAC
:100680008A569F4FBE010E942B0B181619061CF4A8
:10069000309729F6F6C280911201813009F4B2C177
:1006A000823009F4E9C1833009F44EC2843009F480
:1006B0008CC2853009F4C1C28650823008F42DC145
:1006C00040912201242F30E080912D0190E0821B87
:1006D000930B8A569F4F66E970E00E942B0B03979D
:1006E0000CF4E6C2F901E452FE4F808190910401BE
:1006F000282F207F9213AAC28F708093D70145398B
:1007000018F01092220103C04F5F40932201823003
:1007100009F479C018F4813041F0CAC2843009F478
:100720000AC1873009F4B6C1C3C240912201E42F47
:10073000F0E0E452FE4F8081582F52955695577045
:100740002091000152133AC0282F2F7180E1289F79
:100750009001112430932F0120932E01453918F078
:100760001092220103C04F5F40932201E0912201C9
:10077000F0E0E452FE4F808182958F70280F311D8A
:1007800030930F0120930E01E2E7F2E09F5F908328
:10079000C9010196929582958F7089279F7089274C
:1007A00040E2549F800D112481832F5F80910301CB
:1007B00090E1299F800D1124828315C0E2E7F2E0C9
:1007C0009F5F90838183453918F01092220103C006
:1007D0004F5F40932201E0912201F0E0E452FE4F8E
:1007E00080818093740263E082E792E00E94430775
:1007F00080912201853918F01092220159C28F5F31
:100800008093220155C220912201E22FF0E0E452B0
:10081000FE4F8081382F3295369537704091000118
:10082000341346C2880F880F880F253980F0209135
:10083000DC01422F429546954770840F80932B012F
:100840002F7110922E0120932F0120E017C02F5FEF
:10085000E22FF0E0E452FE4F4081542F529556951E
:100860005770850F80932B014F7110922E0140938A
:100870002F01253918F01092220103C02F5F209319
:100880002201C2E7D2E09E5F9883932F9295990F41
:10089000907E282F269526952695290F2983282F87
:1008A0002295220F207E2A83209102012D5F2C8326
:1008B00020910E0130910F01A901529542954F7080
:1008C00045275F704527940F9D832295207F2E83B7
:1008D0000E9468019093DA018093D901292F229513
:1008E0002F703E81230F2E839C01329522952F700D
:1008F00023273F7023272F839091010120E1829FBE
:10090000900D1124988786E08093120181E090E099
:100910009093110180931001CBC1809110019091AF
:100920001101892B09F0C4C11092120180910301B9
:100930000E943507BDC180912201E82FF0E0E4520A
:10094000FE4F2081522F52955695577030910001DD
:10095000531366C02F7140E1249F90011124853903
:1009600060F08091DC0182958F70280F311D3093EB
:100970002F0120932E0180E013C08F5FE82FF0E05D
:10098000E452FE4F408142954F70240F311D309349
:100990002F0120932E01853918F01092220103C0F7
:1009A0008F5F80932201E2E7F2E09C5F9083C901B0
:1009B000929582958F7089279F70892740E2549F76
:1009C000800D112481832295207F228363E0CF0153
:1009D0000E94430720912E0130912F0180910E013A
:1009E00090910F012817390719F40E94E40113C0F0
:1009F00081E0809312018FE390E090931101809346
:100A0000100156C18091100190911101892B09F0BC
:100A10004FC110921201809103010E94350748C115
:100A2000E2E7F2E09C5F90832183853930F080918A
:100A3000DC018093740280E00DC08F5FE82FF0E04E
:100A4000E452FE4F908190937402853918F0109211
:100A5000220103C08F5F8093220163E082E792E06E
:100A60000E94430782E0809312018FE390E090930D
:100A70001101809310011CC180911001909111010E
:100A8000892B09F015C110921201809103010E9477
:100A900035070EC140912201E42FF0E0E452FE4FF1
:100AA0008081782F7295769577702091000172136E
:100AB00096C0282F2F7180E1289F9001112445397D
:100AC00018F01092220103C04F5F409322018091E1
:100AD0002201E82FF0E0E452FE4F6081462F42955C
:100AE0004F70240F311D30932F0120932E01E2E728
:100AF000F2E0995F9083A901529542954F70452786
:100B00005F70452790E2799F400D112441836283F5
:100B1000853918F01092220103C08F5F8093220163
:100B20002115310539F080910E0190910F012817A0
:100B30003907E1F583E08093120183E090E0909320
:100B4000110180931001B4C08091100190911101A6
:100B5000892B09F0ADC010921201E2E7F2E0638147
:100B60009281862F82958F7020E1929F800D1124B3
:100B700080932B0170E0762F66277295707F9481A9
:100B800040E1949F600D711D1124958192959F7095
:100B9000690F711D7093DA016093D9010E94F10011
:100BA00066E082E792E00E94430782C063E082E74A
:100BB00092E00E94430784E08093120183E090E07A
:100BC000909311018093100173C080911001909156
:100BD0001101892B09F06CC01092120169C0E2E783
:100BE000F2E0995F90838183453918F010922201D9
:100BF00003C04F5F40932201E0912201F0E0E452F4
:100C0000FE4F80818093740263E082E792E00E944D
:100C1000430780912201853918F01092220103C008
:100C20008F5F8093220185E08093120183E090E042
:100C300090931101809310013BC08091100190911D
:100C40001101892BA9F51092120132C0453918F013
:100C5000109222012DC04F5F4093220129C02091A4
:100C6000220130E080912D0190E0821B930B8A5687
:100C70009F4F66E970E00E942B0B181619066CF066
:100C80004CCE80911201813009F00ACDC2CE809104
:100C9000120106CD8091120103CDE0911001F09177
:100CA0001101309709F0B7CCF5CF80911201F8CC43
:100CB000DF91CF911F910F9108958091400188237A
:100CC00019F0813049F00DC00E946A070E94DC07CC
:100CD00081E08093400108950E94850210924001B6
:100CE000089510924001089578940E9421070E946F
:100CF00062070E94AC0781E080939A0282E38093AE
:100D00009902109240010E9499060E945D06FBCF55
:100D10001F920F920FB60F9211248F93809113019F
:100D20008F5F809313018F910F900FBE0F901F90D4
:100D30001895CF92DF92EF92FF92E0E7F0E080818A
:100D40008D7F808380911301882309F441C020E2C4
:100D500033E0829F6001839FD00C1124E091050154
:100D6000F0910601309791F120E00D2C000CEE0877
:100D7000FF0880819181A281B381AC01BD01415006
:100D80005109610971094E3F5F4F6F4F7F4F90F4DA
:100D9000C816D906EA06FB0628F0108211821282D4
:100DA000138208C08C199D09AE09BF098083918305
:100DB000A283B3832F5FE22FF0E0EE0FFF1FEB5F04
:100DC000FE4F0190F081E02D309799F610921301BB
:100DD000E0E7F0E0808182608083FF90EF90DF9019
:100DE000CF9008951092C50087E68093C40088E9EB
:100DF0008093C10086E08093C2000895549A5C9865
:100E0000E1ECF0E08081877F80838081806880834F
:100E1000519808951092CD0087E68093CC0088E920
:100E20008093C90086E08093CA000895259A2D9A80
:100E3000E9ECF0E080818860808380818F77808317
:100E4000089582E08093B00095E09093B10093E61E
:100E50009093B300809370000E94F2060E940A07EC
:100E60000E94FE060E9416070895E8ECF0E09081CB
:100E700095FFFDCF8093CE008FE39FE10197F1F7BF
:100E800000C0000008950F931F93CF93DF93EC01F0
:100E9000662369F06150062F10E00F5F1F4F080FA7
:100EA000191F89910E943507C017D107D1F7DF912B
:100EB000CF911F910F9108951092D90088E48093EB
:100EC000D800089581E080939A0280930D010E94DA
:100ED000B708089580919A02813069F028F0823035
:100EE00099F08330C1F034C00E94BD08109299027D
:100EF00010920D0108950E94C2088FEF809399020D
:100F000081E080930D010895809199020E94C708A5
:100F100010920D01089580919B0290919C02A091E6
:100F20009D02B0919E02892B8A2B8B2B71F40E941B
:100F3000CC0880E492E4AFE0B0E080939B02909311
:100F40009C02A0939D02B0939E0210920D01089501
:100F500081E080939A020895E2E3F1E088E597E06A
:100F60009183808388E992E19383828388ED9DE178
:100F70009583848388E199E29783868388EC92E362
:100F80009187808780E69BE39387828780EF95E552
:100F90009587848782E08093150180E492E4AFE036
:100FA000B0E080939F029093A002A093A102B0931F
:100FB000A2020E94D7080895EF92FF920F931F9309
:100FC000CF93DF9380910D01811110C080E492E4F2
:100FD000AFE0B0E080939F029093A002A093A102A3
:100FE000B093A20282E080931501A4C08091150104
:100FF000813009F453C020F0823009F0B1C09AC0AA
:101000001092140180E00E94DF090E94FD080E94F6
:10101000700900913E0110913F01A3E2B1E0CBE2E3
:10102000D1E040E00F2EF2E3EF2EF1E0FF2EF02DA5
:101030006EE371E02D913D912017310750F4F701D7
:10104000819191918217930708F44F5FE617F70794
:10105000B9F7AC17BD0771F74093A3024D3020F0EC
:1010600087E08093DB0102C01092DB01440F440F44
:10107000440F8091DB01482B4093DB0182E0809399
:10108000150180EC96ECADE2B0E080939F02909366
:10109000A002A093A102B093A20262C080911401A9
:1010A0008F5F809314010E94700900913E0110919E
:1010B0003F01A3E2B1E0CBE2D1E040E00F2EF2E34A
:1010C000EF2EF1E0FF2EF02D6EE371E02D913D91BA
:1010D0002017310750F4F7018191919128173907B2
:1010E00008F04F5FE617F707B9F7AC17BD0771F7C0
:1010F0004093A3024D3020F087E08093DB0102C0D3
:101100001092DB01440F440F440F8091DB01482B08
:101110004093DB0182E08093150180E492E4AFE02C
:10112000B0E080939F029093A002A093A102B0939D
:10113000A20216C080919F029091A002A091A102EC
:10114000B091A202892B8A2B8B2B51F48091140130
:101150008A3018F01092150103C081E080931501C8
:10116000DF91CF911F910F91FF90EF900895569AC4
:1011700083EC84BD82E085BD089584B58F7384BD02
:101180005E9A089584B58F7384BD5E98089594B572
:10119000906C94BD87BD089584B5807C19F084B5AA
:1011A0008F7384BD9BB180E489278BB908950E9419
:1011B0005C0708958F70806C80937C0086E8809334
:1011C0007A0024E030E040E050E0EAE7F0E0A8E711
:1011D000B0E0908190649083908194FFFDCF8D91D9
:1011E0009C911197480F591F2150310991F7CA015D
:1011F00096958795969587950895CF93DF9380E090
:101200000E94DA08C6E1D1E0BC0180E090E00E94D3
:10121000300A21E93DEE4DEC51E40E94960A0E940D
:10122000010A7983688381E00E94DA08BC0180E0CA
:1012300090E00E94300A21E93DEE4DEC51E40E941D
:10124000960A0E94010A7B836A8382E00E94DA0880
:10125000BC0180E090E00E94300A21E93DEE4DECB7
:1012600051E40E94960A0E94010A7D836C8383E008
:101270000E94DA08BC0180E090E00E94300A21E977
:101280003DEE4DEC51E40E94960A0E94010A7F83D4
:101290006E8384E00E94DA08BC0180E090E00E9446
:1012A000300A21E93DEE4DEC51E40E94960A0E947D
:1012B000010A7987688785E00E94DA08BC0180E02E
:1012C00090E00E94300A21E93DEE4DEC51E40E948D
:1012D000960A0E94010A7B876A87DF91CF91089561
:1012E0000F931F93CF93DF9384E00E94DA08EC0101
:1012F00080E00E94DA0803E211E0BE01681B790B6E
:1013000080E090E00E94300A21E93DEE4DEC51E48E
:101310000E94960A0E94010AF8017183608385E0A9
:101320000E94DA08EC0181E00E94DA08BE01681B25
:10133000790B80E090E00E94300A21E93DEE4DEC0F
:1013400051E40E94960A0E94010AF80173836283A5
:1013500084E00E94DA08EC0182E00E94DA08BE0113
:10136000681B790B80E090E00E94300A21E93DEE95
:101370004DEC51E40E94960A0E94010AF80175831F
:10138000648385E00E94DA08EC0183E00E94DA08B9
:10139000BE01681B790B80E090E00E94300A21E9D1
:1013A0003DEE4DEC51E40E94960A0E94010AF801BC
:1013B00077836683DF91CF911F910F910895CF932B
:1013C000C82F86E00E94DA08CC2359F045E1489FF7
:1013D0009001499F300D1124309398022093970279
:1013E0000EC020919702309198024BE0429FC001BD
:1013F000439F900D11249093980280939702CF9170
:1014000008950E94750A88F09F5798F0B92F992780
:10141000B751B0F0E1F0660F771F881F991F1AF0DF
:10142000BA95C9F714C0B13091F00E948F0AB1E0AB
:1014300008950C948F0A672F782F8827B85F39F0AA
:10144000B93FCCF3869577956795B395D9F73EF478
:1014500090958095709561957F4F8F4F9F4F089520
:10146000E89409C097FB3EF490958095709561953E
:101470007F4F8F4F9F4F9923A9F0F92F96E9BB27F4
:101480009395F695879577956795B795F111F8CF70
:10149000FAF4BB0F11F460FF1BC06F5F7F4F8F4FDB
:1014A0009F4F16C0882311F096E911C0772321F0D1
:1014B0009EE8872F762F05C0662371F096E8862F69
:1014C00070E060E02AF09A95660F771F881FDAF7C0
:1014D000880F9695879597F9089557FD9058440F72
:1014E000551F59F05F3F71F04795880F97FB991F83
:1014F00061F09F3F79F08795089512161306140640
:10150000551FF2CF4695F1DF08C0161617061806CC
:10151000991FF1CF86957105610508940895E894A7
:10152000BB2766277727CB0197F908950E94A90A60
:101530000C941A0B0E940C0B38F00E94130B20F035
:10154000952311F00C94030B0C94090B11240C94AB
:10155000900A0E946D0A70F3959FC1F3950F50E0B9
:10156000551F629FF001729FBB27F00DB11D639F55
:10157000AA27F00DB11DAA1F649F6627B00DA11DFB
:10158000661F829F2227B00DA11D621F739FB00DA1
:10159000A11D621F839FA00D611D221F749F332711
:1015A000A00D611D231F849F600D211D822F762FAA
:1015B0006A2F11249F5750409AF0F1F088234AF087
:1015C000EE0FFF1FBB1F661F771F881F91505040F3
:1015D000A9F79E3F510580F00C94030B0C94900AE0
:1015E0005F3FE4F3983ED4F3869577956795B7957A
:1015F000F795E7959F5FC1F7FE2B880F911D969594
:10160000879597F9089597F99F6780E870E060E003
:1016100008959FEF80EC089500240A94161617068B
:1016200018060906089500240A94121613061406D3
:1016300005060895092E0394000C11F4882352F036
:10164000BB0F40F4BF2B11F460FF04C06F5F7F4FEE
:101650008F4F9F4F089597FB072E16F4009407D0E5
:1016600077FD09D00E94450B07FC05D03EF490950C
:1016700081959F4F0895709561957F4F0895EE0F66
:10168000FF1F0590F491E02D0994AA1BBB1B51E1AB
:1016900007C0AA1FBB1FA617B70710F0A61BB70BE2
:1016A000881F991F5A95A9F780959095BC01CD0187
:0616B0000895F894FFCF3D
:0C16B60001065009A09F029B02000000EA
:00000001FF
